:020000041000EA
:10100000500500201D100010000000009D10001071
:101010000018040000010000000000801149124A7D
:10102000124B00F018F8124880471249124A134B2D
:1010300000F011F81249134A134B00F00CF8134951
:10104000134A0020521A02DD043A8850FCDC114891
:101050008047114880479B1A03DD043BC858D05095
:10106000FBDC7047E05D00100C0000205001002008
:10107000A1100010245F0010500500206C09002012
:10108000406300106C0900206C0900206C090020EE
:10109000C40B00209D58001045510010FEE70000D1
:1010A00080B500AF03F0DCFD03F028FEBD4680BD37
:1010B00080B500AF2A4B1A68FF231B0213401A0A9F
:1010C000284B1A60274B1B68002B37D0244B1B681A
:1010D000FF221A40244B1A60214BDB690322134084
:1010E0001A02214B1B681A431F4B1A601C4BDA690A
:1010F00080239B0013400ED11A4B1B689A021A4B97
:101100001B68D3181948191C01F0D6FA031C1A01E0
:10111000174B1A6021E000F02FF8031C9901114BC6
:101120001B689A02104B1B68D318081C191C01F08D
:10113000C3FA031C1A010E4B1A600EE0084BDA6961
:1011400080239B00134003D1094B0A4A1A6004E034
:1011500000F012F8021C064B1A60BD4680BDC04666
:10116000000301406C0900207009002000001BB73B
:10117000FC3F0020006CDC0280B500AF014B181C66
:10118000BD4680BD002D310190B585B000AFF8603F
:101190007A600B23FB180A1C1A700B23FB181B78B0
:1011A0009B08DBB2181C0B23FB181B789B08DBB2D7
:1011B0001A1CFB6804329200D3580B22BA1812781A
:1011C00003210A40D200111CFC228A40D2431A405B
:1011D000111CFB68021D9200D150FB685B6F0B2253
:1011E000BA1812785200111C03228A40D2431A40C6
:1011F000FB685A670B23FB181B78DB08DBB2181C53
:101200000B23FB181B78DB08DBB21A1CFB681032BF
:101210009200D3580B22BA18127807210A40920084
:10122000111C04228A40D2431A40111CFB68021C84
:1012300010329200D1500B23FB181B78DB08DBB275
:10124000181C0B23FB181B78DB08DBB21A1CFB688D
:1012500010329200D2587B685B781C1C0B23FB1861
:101260001B7807210B409B009C40231C1A43111C38
:10127000FB68021C10329200D150FB68204A934256
:101280000BD1FB681B6E0B22BA181278012191401A
:101290000A1CD2431A40FB681A667B681B78DBB2D3
:1012A0005BB2002B07DA7B685A680B23FB181B78AC
:1012B0009A40FB685A600B23FB181B789B08DBB233
:1012C000181C0B23FB181B789B08DBB21A1CFB684D
:1012D00004329200D2587B681B781C1C0B23FB182D
:1012E0001B7803210B40DB009C40231C1A43111C7C
:1012F000FB68021D9200D150BD4605B090BDC046AE
:101300000002044080B500AF024BC3225A62BD46C2
:1013100080BDC0460000014080B500AF054BC02233
:101320005A62C046034B5B6A04221340FAD1BD46A1
:1013300080BDC0460000014080B586B000AF786037
:10134000FFF7EAFF7B689B79302B53D0FFF714FF40
:10135000021E494B9A4209D9484A48499023CB5A20
:101360009BB240210B4399B29023D152434A434947
:101370009023CB5A9BB29BB2191C322399430B1C6E
:1013800099B27B689B799BB20B439BB299B2902335
:10139000D1523B4B02229A623A4B3A4A52693A493D
:1013A0000A405A61394B7B6100E0C0467B69013BD2
:1013B0007B617B69002BF8D1324B324A5269C021E4
:1013C00089040A435A61C0462E4B5A6980235B0444
:1013D0001340F9D12E4B3B6100E0C0463B69013B15
:1013E0003B613B69002BF8D1254B1B6A022213405D
:1013F000CFD109E0214A21499023CB5A9BB2302119
:101400000B4399B29023D1521C4A7B68DB7999B285
:101410008C23D1527B68DB79002B09D11D4BFB60FB
:1014200000E0C046FB68013BFB60FB68002BF8D185
:10143000144B144AD26918490A40796889880A43CA
:10144000DA61104A0F4B1B68144919407B68DB684E
:1014500019437B689B680B431360FFF753FF7B685E
:101460009B781A1C7B681B88101C191C00F04CF818
:10147000BD4606B080BDC046002D310100100140C0
:101480003800014000030140FFFFFFFD1A02000089
:101490007D0A0000A02E6300FFFDFFFFFFFFF0FFAD
:1014A00080B582B000AF021CBB1D1A80FFF734FF6D
:1014B000064B064AD26906491140BA1D12880A43F2
:1014C000DA61FFF71FFFBD4602B080BD0003014097
:1014D000FFFEFFFF80B582B000AF7860FFF71CFF12
:1014E000084B084A11697A680A431A61C046054BDD
:1014F0001A688023DB051340F9D1FFF703FFBD46CF
:1015000002B080BD0003014080B584B000AF7860B8
:101510003960FFF701FF274B1A68FF231B021340B6
:101520001B0AFB60234B234AD26903218A43111C07
:101530003A68120A0A43DA611E4B1E4A12681E49B3
:1015400011403A68FF2002400A431C490A431A60CE
:10155000C046184B1A688023DB051340F9D1FA689E
:101560007B689A4206D8FA687B68101C191C00F048
:1015700053F805E0FA687B68101C191C00F022F88B
:101580000C4B0C4A12680E4911407A6812020A4349
:101590000A490A431A60C046064B1A688023DB05D5
:1015A0001340F9D1FFF7AEFEFFF782FDBD4604B050
:1015B00080BDC0460003014000FF0FC00000F03FA7
:1015C000FF000FC080B582B000AF7860396014E0D2
:1015D0007B689B087B600D4B0C4A12680C491140DC
:1015E0007A6812020A430B490A431A60C046074B45
:1015F0001A688023DB051340F9D13B689A007B68A9
:101600009A42E5D3BD4602B080BDC046000301400A
:10161000FF000FC00000F03F80B582B000AF7860DF
:10162000396019E07B68002B01D101237B607B6866
:101630009B007B600C4B0C4A12680C4911407A6885
:1016400012020A430A490A431A60C046064B1A6846
:101650008023DB051340F9D17B689A003B689A42EE
:10166000E0D3BD4602B080BD00030140FF000FC0C3
:101670000000F03F80B582B000AF021CFB1D1A7065
:101680003B1D0A1C1A803B1D3A1D128803210A408B
:101690001A80FB1D1B780F2B13D8184B174AD26EDC
:1016A000F91D09784900081C03218140C9430A40FB
:1016B000391D0988F81D0078400081400A43DA6628
:1016C00018E0FB1DFA1D12780F210A401A700B4B0F
:1016D0000A4A126FF91D09784900081C032181404C
:1016E000C9430A40391D0988F81D0078400081402F
:1016F0000A431A67BD4602B080BDC04600000140E3
:1017000080B582B000AF78607B6880225200DA60DA
:10171000BD4602B080BDC04680B582B000AF7860E3
:101720007B68094A934203D10420FFF7D3FE08E007
:101730007B68064A934204D180239B02181CFFF762
:10174000C9FEBD4602B080BD000004480040044808
:1017500080B582B000AF78607B68181CFFF7DCFFB3
:10176000BD4602B080BDC04680B584B000AF786091
:101770000A1CFB1C1A707B68181CFFF7E9FF7B68CA
:10178000181CFFF7BDFF7B681B68FB60FB68074AFE
:101790001340FB60FB1C1B789B03FA681343FB6040
:1017A0007B68FA681A60BD4604B080BDFF3FFFFF4A
:1017B00080B584B000AF786039607B681B68FB60DF
:1017C0003B681B0CDA43FB681340FB603B681B045F
:1017D0001B0CFA681343FB607B68FA681A60BD460D
:1017E00004B080BD80B582B000AF786039603B68DE
:1017F0001A687B685A613B685B799B06DB0FDBB23A
:101800001A057B685A603B681B791B071B0FDBB20C
:101810001A1C7B685A623B685B791B071B0FDBB2A3
:101820001A1C7B681A623B685B79DB06DB0FDBB254
:101830001A1C7B689A613B681B791B061B0FDBB285
:101840001A1C7B68DA62BD4602B080BD80B582B0EA
:1018500000AF786039603B681A687B685A613B6802
:101860005B79DB07DB0FDBB21A057B685A603B68EC
:101870001B791B071B0FDBB21A1C7B685A623B6883
:101880001B791B061B0FDBB21A1C7B68DA62BD4694
:1018900002B080BD80B584B000AF7860081C111C18
:1018A000FB1C021C1A70BB1C0A1C1A707B685B684C
:1018B000BB60BB6803229343BB60FB1C1B78BA6808
:1018C0001343BB607B68BA685A607B685B69FB60E6
:1018D000BB1C1B78012B05D1FB688022D20013436F
:1018E000FB6003E0FB68044A1340FB607B68FA6816
:1018F0005A61BD4604B080BDFFFBFFFF80B584B0D8
:1019000000AF7860081C111CFB1C021C1A70BB1C69
:101910000A1C1A707B685B68FB60FB680C229343AF
:10192000FB60FB1C1B789B00FA681343FB607B6821
:10193000FA685A607B685B69BB60BB68074A134002
:10194000BB60BB1C1B781B02BA681343BB607B687F
:10195000BA685A61BD4604B080BDC046FFFCFFFFB7
:1019600080B584B000AF78600A1CFB1C1A707B68DD
:101970005B68FB60FB68074A1340FB60FB1C1B783D
:101980001B03FA681343FB607B68FA685A60BD4624
:1019900004B080BDFFCFFFFF90B585B000AF786089
:1019A0000C1C101C191CFB1C221C1A70BB1C021CDA
:1019B0001A707B1C0A1C1A707B685B69FB607B6871
:1019C0005B68BB60BB68174A1340BB60FB1C1B789D
:1019D0009B04BA681343BB607B68BA685A60BB1C3F
:1019E0001B78012B05D1FB68802252041343FB6056
:1019F00003E0FB680C4A1340FB607B1C1B78002B48
:101A000005D0FB68802212041343FB6003E0FB68EF
:101A1000064A1340FB607B68FA685A61BD4605B010
:101A200090BDC046FFFFF3FFFFFFFFFEFFFF7FFFFC
:101A300080B584B000AF78600A1CFB1C1A707B680C
:101A40005B68FB60FB68074A1340FB60FB1C1B786C
:101A50009B03FA681343FB607B68FA685A60BD46D3
:101A600004B080BDFF3FFFFF80B584B000AF786059
:101A70000A1CFB1C1A707B685B68FB60FB68074AEA
:101A80001340FB60FB1C1B781B02FA681343FB60CE
:101A90007B68FA685A60BD4604B080BDFFFCFFFF5A
:101AA00080B584B000AF78600A1CFB1C1A707B689C
:101AB0005B68FB60FB68C0229343FB60FB1C1B78E8
:101AC0009B01FA681343FB607B68FA685A60BD4665
:101AD00004B080BD80B584B000AF78600A1CFB1CE8
:101AE0001A707B685B68FB60FB68074A1340FB6009
:101AF000FB1C1B789B02FA681343FB607B68FA6847
:101B00005A60BD4604B080BDFFF3FFFF80B584B0CE
:101B100000AF78607B685B68FB60FB68064A134037
:101B2000FB60FB68802252021343FB607B68FA680B
:101B30005A60BD4604B080BDFFFFFEFF80B584B093
:101B400000AF7860081C111CFB1C021C1A70BB1C27
:101B50000A1C1A707B685B68BB60BB68174A13403D
:101B6000BB60BB68802292021343BB607B68BA688B
:101B70005A607B685B69FB60BB1C1B78002B05D03F
:101B8000FB68802292031343FB6003E0FB680C4A6E
:101B90001340FB60FB1C1B78012B05D1FB688022E6
:101BA000D2031343FB6003E0FB68064A1340FB606B
:101BB0007B68FA685A61BD4604B080BDFFFFFDFF37
:101BC000FFFFDFFFFFFFBFFF80B586B000AFF8600B
:101BD000B9607A60FB681B687B617B693022934344
:101BE0007B61BB685B781B017A6913437B617B690E
:101BF000294A13407B617B685B781B027A69134337
:101C00007B617B69402293437B61BB689B789B012E
:101C10007A6913437B617B69204A13407B617B684F
:101C20009B789B027A6913437B617B691C4A134052
:101C30007B61BB68DB781B057A6913437B617B6939
:101C4000184A13407B617B68DB781B067A69134373
:101C50007B61FB687A691A60FB68D8229B587B61BC
:101C60007B69114A13407B61BB681B781B027A6950
:101C700013437B617B690D4A13407B617B681B7852
:101C80001B047A6913437B61FB68D8217A695A5037
:101C9000BD4606B080BDC046FFFCFFFFFFFBFFFF57
:101CA000FFFFCFFFFFFFFFFCFFC0FFFFFFFFC0FFF5
:101CB00080B588B000AFF8607A600B23FB180A1C6F
:101CC0001A701F23FB180B22BA181278013A1A70E7
:101CD000FB681B68BB611723FB181F22BA18127818
:101CE00092001A701723FB181B7803229A40131CCA
:101CF000DA43BB691340BB617B685B781A1C17230E
:101D0000FB181B789A40131CBA691343BB611F234D
:101D1000FB181B789B00DAB21723FB1802321A70EB
:101D20001723FB181B7801229A40131CDA43BB6966
:101D30001340BB617B689B781A1C1723FB181B7828
:101D40009A40131CBA691343BB611F23FB181B780D
:101D50009B00DAB21723FB1810321A701723FB18F6
:101D60001B7803229A40131CDA43BB691340BB6102
:101D70007B68DB781A1C1723FB181B789A40131C0E
:101D8000BA691343BB61FB68BA691A60FB68D82261
:101D90009B58BB611723FB181F22BA181278D20078
:101DA0001A701723FB181B783F229A40131CDA4342
:101DB000BB691340BB617B681B781A1C1723FB1897
:101DC0001B789A40131CBA691343BB61FB68D82186
:101DD000BA695A50BD4608B080BDC04680B584B0CF
:101DE00000AF78600A1CFB1C1A707B689B6AFB6062
:101DF000FB68094A1340FB60FB1C1B781B02FA6856
:101E00001343FB607B68FA689A62FB1C1A787B6854
:101E10005A62BD4604B080BDFFF0FFFF80B586B0BA
:101E200000AF7860081C111CFB1C021C1A70BB1C44
:101E30000A1C1A70FB1C1B780B2B20D89A00204B15
:101E4000D3181B689F4603233B6100237B611BE083
:101E50000C233B6102237B6116E0C0239B003B61A6
:101E600008237B6110E0C0231B013B610A237B61D7
:101E70000AE0C0239B013B610C237B6104E000234B
:101E80003B6100237B61C0463B69002B14D07B681B
:101E9000A8229B58FB603B69DA43FB681340FB6058
:101EA000BB1C1A787B699A40131CFA681343FB60C9
:101EB0007B68A821FA685A50BD4606B080BDC0466E
:101EC000E858001080B582B000AF78607B6880224F
:101ED0005200DA60BD4602B080BDC04680B582B017
:101EE00000AF78607B6801221A61BD4602B080BDF8
:101EF00080B582B000AF78607A68A023DB059A4293
:101F000003D10220FFF7E6FA08E07B68054A934216
:101F100004D180235B02181CFFF7DCFABD4602B037
:101F200080BDC0460040005080B582B000AF7860F0
:101F30007B68181CFFF7DCFFBD4602B080BDC046C1
:101F400080B584B000AF78600A1CFB1C1A707B68F7
:101F5000181CFFF7E9FF7B68181CFFF7B3FF7B68CD
:101F60001B68FB60FB68074A1340FB60FB1C1B7887
:101F70009B03FA681343FB607B68FA681A60BD46EE
:101F800004B080BDFF3FFFFF80B582B000AF786036
:101F900039607B68181CFFF7A1FF3B681A687B68F3
:101FA0005A613B685B7BDB06DB0FDBB21A057B68A3
:101FB0005A603B681B7B1B071B0FDBB21A1C7B683C
:101FC0005A623B681B7B1B061B0FDBB21A1C7B682B
:101FD000DA623B685B7B1B071B0FDBB21A1C7B685A
:101FE0001A623B685A687B689A613B689A687B68AA
:101FF0009A64BD4602B080BD80B584B000AF786001
:1020000039607B681B68FB603B681B0CDA43FB682C
:102010001340FB603B681B041B0CFA681343FB6016
:102020007B68FA681A60BD4604B080BD80B584B094
:1020300000AF7860081C111CFB1C021C1A70BB1C32
:102040000A1C1A707B685B68BB60BB680322934301
:10205000BB60FB1C1B78BA681343BB607B68BA6823
:102060005A607B685B69FB60BB1C1B78012B05D148
:10207000FB688022D2001343FB6003E0FB68044A44
:102080001340FB607B68FA685A61BD4604B080BDAE
:10209000FFFBFFFF80B584B000AF7860081C111C07
:1020A000FB1C021C1A70BB1C0A1C1A707B685B6844
:1020B000FB60FB680C229343FB60FB1C1B789B00BE
:1020C000FA681343FB607B68FA685A607B685B6957
:1020D000BB60BB68074A1340BB60BB1C1B781B027C
:1020E000BA681343BB607B68BA685A61BD4604B0E6
:1020F00080BDC046FFFCFFFF80B584B000AF7860B4
:102100000A1CFB1C1A707B685B68FB60FB68074A53
:102110001340FB60FB1C1B781B03FA681343FB6036
:102120007B68FA685A60BD4604B080BDFFCFFFFFF0
:1021300080B584B000AF78600A1CFB1C1A707B6805
:102140005B69FB60FB6880229343FB60FB1C1B7890
:10215000DB01FA681343FB607B68FA685A61BD468D
:1021600004B080BD90B585B000AF78600C1C101C29
:10217000191CFB1C221C1A70BB1C021C1A707B1C35
:102180000A1C1A707B685B68BB60BB681D4A134001
:10219000BB60FB1C1B789B04BA681343BB607B6865
:1021A000BA685A607B685B69FB60BB1C1B78012BBB
:1021B00005D1FB68802252041343FB6003E0FB68F7
:1021C000114A1340FB602023FB181B78002B05D01D
:1021D000FB68802212041343FB6003E0FB680B4A98
:1021E0001340FB60FB680A4A1340FB607B1C1B78B2
:1021F000DB06FA681343FB607B68FA685A61BD46E8
:1022000005B090BDFFFFF3FFFFFFFFFEFFFF7FFF65
:10221000FFFFFFE780B584B000AF78600A1CFB1CAD
:102220001A707B685B68FB60FB68074A1340FB60C1
:10223000FB1C1B789B03FA681343FB607B68FA68FE
:102240005A60BD4604B080BDFF3FFFFF80B584B03B
:1022500000AF78600A1CFB1C1A707B685B68FB602F
:10226000FB68074A1340FB60FB1C1B781B02FA68E3
:102270001343FB607B68FA685A60BD4604B080BDBA
:10228000FFFCFFFF80B584B000AF78600A1CFB1C28
:102290001A707B685B68FB60FB68074A1340FB6051
:1022A000FB1C1B789B02FA681343FB607B68FA688F
:1022B0005A60BD4604B080BDFFF3FFFF80B584B017
:1022C00000AF78607B685B68FB60FB68064A134080
:1022D000FB60FB68802252021343FB607B68FA6854
:1022E0005A60BD4604B080BDFFFFFEFF80B584B0DC
:1022F00000AF7860081C111CFB1C021C1A70BB1C70
:102300000A1C1A707B685B68BB60BB68174A134085
:10231000BB60BB68802292021343BB607B68BA68D3
:102320005A607B685B69FB60BB1C1B78002B05D087
:10233000FB68802292031343FB6003E0FB680C4AB6
:102340001340FB60FB1C1B78012B05D1FB6880222E
:10235000D2031343FB6003E0FB68064A1340FB60B3
:102360007B68FA685A61BD4604B080BDFFFFFDFF7F
:10237000FFFFDFFFFFFFBFFF80B586B000AFF86053
:10238000B9607A60FB681B687B617B69302293438C
:102390007B61BB685B781B017A6913437B617B6956
:1023A000294A13407B617B685B781B027A6913437F
:1023B0007B617B69402293437B61BB689B789B0177
:1023C0007A6913437B617B69204A13407B617B6898
:1023D0009B789B027A6913437B617B691C4A13409B
:1023E0007B61BB68DB781B057A6913437B617B6982
:1023F000184A13407B617B68DB781B067A691343BC
:102400007B61FB687A691A60FB68D8229B587B6104
:102410007B69114A13407B61BB681B781B027A6998
:1024200013437B617B690D4A13407B617B681B789A
:102430001B047A6913437B61FB68D8217A695A507F
:10244000BD4606B080BDC046FFFCFFFFFFFBFFFF9F
:10245000FFFFCFFFFFFFFFFCFFC0FFFFFFFFC0FF3D
:1024600080B588B000AFF8607A600B23FB180A1CB7
:102470001A701F23FB180B22BA181278013A1A702F
:10248000FB681B68BB611723FB181F22BA18127860
:1024900092001A701723FB181B7803229A40131C12
:1024A000DA43BB691340BB617B685B781A1C172356
:1024B000FB181B789A40131CBA691343BB611F2396
:1024C000FB181B789B00DAB21723FB1802321A7034
:1024D0001723FB181B7801229A40131CDA43BB69AF
:1024E0001340BB617B689B781A1C1723FB181B7871
:1024F0009A40131CBA691343BB611F23FB181B7856
:102500009B00DAB21723FB1810321A701723FB183E
:102510001B7803229A40131CDA43BB691340BB614A
:102520007B68DB781A1C1723FB181B789A40131C56
:10253000BA691343BB61FB68BA691A60FB68D822A9
:102540009B58BB611723FB181F22BA181278D200C0
:102550001A701723FB181B783F229A40131CDA438A
:10256000BB691340BB617B681B781A1C1723FB18DF
:102570001B789A40131CBA691343BB61FB68D821CE
:10258000BA695A50BD4608B080BDC04680B582B019
:1025900000AF78600A1CBB1C1A80BB1C1A887B68C1
:1025A0005A63BD4602B080BD80B582B000AF78608E
:1025B000081C111CFB1C021C1A703B1C0A1C1A80F4
:1025C000FB1C1B78002B04D13B1C1A887B68DA6348
:1025D00003E03B1C1A887B685A64BD4602B080BD8C
:1025E00080B586B000AF7860081C111CFB1C021C73
:1025F0001A70BB1C0A1C1A70FB1C1B780B2B25D8ED
:102600009A00224BD3181B689F4603237B6100234B
:102610003B6120E00C237B6102233B611BE0302304
:102620007B6104233B6116E0C0239B007B61082390
:102630003B6110E0C0231B017B610A233B610AE080
:10264000C0239B017B610C233B6104E000237B6181
:1026500000233B61C0467B69002B14D07B68A82215
:102660009B58FB607B69DA43FB681340FB60BB1C33
:102670001A783B699A40131CFA681343FB607B6825
:10268000A821FA685A50BD4606B080BD18590010FE
:1026900080B582B000AF786039603B685A687B686B
:1026A0001A653B689A687B685A653B681A687B685C
:1026B000DA64BD4602B080BD80B588B000AF7860F6
:1026C0003960EFF310837B617B693B6172B63B69D4
:1026D000FB610C4B04225A630A4B7A681A62094B5D
:1026E0003A685A62074B9B6ABB61FB69FB60FB68F7
:1026F000BB60BB6883F31088BB69181CBD4608B07B
:1027000080BDC0460000034080B582B000AF786055
:102710007B680322DA60BD4602B080BD80B582B01E
:1027200000AF78607B68094A934203D18020FEF7AE
:10273000D1FE08E07B68064A934204D180235B0304
:10274000181CFEF7C7FEBD4602B080BD0000015058
:102750000040015080B582B000AF786039607B687E
:10276000181CFFF7DBFF7B68181CFFF7CDFF3B68E9
:102770001A687B681A60BD4602B080BD80B584B01F
:1027800000AF786039607B681B68DBB21A1C0323DA
:1027900013400BD17B681A683B681B681A437B683F
:1027A0001A600F23FB1800221A7003E00F23FB1896
:1027B00001221A700F23FB181B78181CBD4604B0A9
:1027C00080BDC04680B584B000AF7860081C111C85
:1027D000FB1C021C1A70BB1C0A1C1A707B685B6F06
:1027E000FB60FB1C1B7810331A1C01239340DA4357
:1027F000FB681340FB60BB1C1B78FA1C127810327C
:102800009340FA681343FB607B68FA685A67BD46D9
:1028100004B080BD80B584B000AF786039603B1CE7
:102820001B785B075B0FDBB21A1CBB1C1B889B056C
:102830009B0D9BB21B041343FB607A68F8235B007B
:10284000F968D150FB1C1B78DB06DB0FDBB21A07E3
:10285000FB1C1B781B079B0FDBB29B061A43FB1C60
:102860001B789B06DB0FDBB25B071343FB60FB1C93
:102870001B785B06DB0FDBB29B07FA681343FB6038
:102880007A68F8235B00D258FB6813438022120653
:102890001A43111C7A68F8235B00D150BD4604B07E
:1028A00080BDC04680B582B000AF78607B6884226E
:1028B0009B588022D2041A437B6884215A50BD461B
:1028C00002B080BD80B582B000AF78607B688422A2
:1028D0009B58044A1A407B6884215A50BD4602B076
:1028E00080BDC046FFFFFFFB80B500AF034BFF225A
:1028F0001A600120FEF7EEFDBD4680BD00050140D7
:1029000080B582B000AF786039600020FEF7C8FD66
:10291000FFF7EAFF3B685A697B681A603B685B68AF
:10292000802212021A437B6880215A503B689A68C1
:102930007B68A0215A503B68DA687B68A4215A5012
:102940003B6819697A68A0239B00D1503B681A68DC
:102950007B68B8215A50BD4602B080BD80B584B0B6
:1029600000AFF860B9603B60FB1D1A70FB1D1B785F
:10297000002B09D1BB680A4A1340191CFB683A684E
:1029800028329200D15008E0BB68064A1340191C57
:10299000FB683A6828329200D150BD4604B080BD31
:1029A0001F07000000001F0780B584B000AF7860EB
:1029B0007B6880229B58802212061A437B68802104
:1029C0005A500F23FB1800221A7026E00F23FB1821
:1029D0001A78164B9200D358BB60BB6880229A5875
:1029E000C0239B02134011D000E0C046BB68802288
:1029F0009A5880239B051340F7D000E0C046BB687F
:102A000080229A5880235B051340F7D10F23FB18CF
:102A10001A780F23FB1801321A700F23FB181B784A
:102A2000012BD3D9BD4604B080BDC0464859001023
:102A300080B584B000AF78600A1CFB1C1A70FB1CC8
:102A40001B78032B04D9FB1C1B78043BFB6002E0C2
:102A5000FB1C1B78FB607A68A0235B00D3580F2215
:102A60009343191C7A68A0235B00D1507A68A02395
:102A70005B00D258FB681A43111C7A68A0235B00E4
:102A8000D150BD4604B080BD80B582B000AF786043
:102A900039607A683B685B68101C191C00220023AF
:102AA00000F030F87A683B685B68101C191C012242
:102AB000002300F027F87A683B689B68101C191CFB
:102AC0000022012300F01EF87A683B689B68101C06
:102AD000191C0122012300F015F83B681A697B6874
:102AE00080215A503B68DA687B68B8215A507A686E
:102AF0003B681B68101C191CFFF78CFEBD4602B01A
:102B000080BDC04680B58CB000AFF860B9603B6056
:102B1000FB1D1A70FB1D1B78002B19D10823FB62CB
:102B2000E023DB007B620023BB621F233B620823A0
:102B3000FB181B78DB06DB0EDBB2FB610923FB18FD
:102B40001B785B075B0FDAB21B23FB181A7019E0C6
:102B50001823FB62E023DB047B621023BB62F823B3
:102B60005B033B620A23FB181B78DB06DB0EDBB240
:102B7000FB610B23FB181B785B075B0FDAB21B238F
:102B8000FB181A70FB683A6828329200D3587B61B0
:102B90007B6ADA437B6913407B611B23FB181A783D
:102BA000FB6A9A40131C7A6913437B613B6ADA43E0
:102BB0007B6913407B61BB6AFA699A40131C7A698E
:102BC00013437B61FB683A68283292007969D150DF
:102BD000BD460CB080BDC04680B584B000AF786003
:102BE0000A1CFB1C1A707B6880229B58FB60FB68E8
:102BF00003229343FB60FB1C1B78FA681343FB60C2
:102C00007B688021FA685A50BD4604B080BDC0463A
:102C100080B582B000AF78600A1CFB1C1A70FB1CE8
:102C20001B78002B08D17B6880229B5801221A4315
:102C30007B6880215A500BE0FB1C1B78012B07D1CD
:102C40007B6884229B5801221A437B6884215A5056
:102C5000BD4602B080BDC04680B586B000AF78608A
:102C600039601723FB1800221A700FE01723FB1896
:102C70001A784A4B9200D358181CFFF723FE1723EB
:102C8000FB181A781723FB1801321A701723FB1848
:102C90001B78012BEAD900233B613B681B78032298
:102CA0001340DBB2002B02D080231B013B611723B2
:102CB000FB1800221A7029E01723FB181A78374BEB
:102CC0009200D35884229B58FB60FB68344A13401F
:102CD000FB603B681B781B079B0FDBB21B02FA688B
:102CE0001343FB60FA683B691343FB601723FB182F
:102CF0001A782A4B9200D3588421FA685A50172325
:102D0000FB181A781723FB1801321A701723FB18C7
:102D10001B78012BD0D93B685B68224A1A43111CEF
:102D20007A6880239B00D1503B689B6801221A433C
:102D3000111C7A6881239B00D1503B681B780322C9
:102D40001340DBB2022B0BD17A6881239B00D3584E
:102D5000802252021A43111C7A6881239B00D150B1
:102D60001723FB1800221A700FE01723FB181A789C
:102D70000A4B9200D358181CFFF794FD1723FB1839
:102D80001A781723FB1801321A701723FB181B78C7
:102D9000012BEAD9BD4606B080BDC0464859001097
:102DA000FFFCFFFF0080800080B588B000AFF860B6
:102DB000B9607A607B681B7BBB61FB6888229B588B
:102DC0007B61BB6801229A40131CDA437B69134084
:102DD0007B61BB68BA699A40131C7A6913437B61B3
:102DE000FB6888217A695A507B685B7B5BB2002B59
:102DF0002ADB0023FB61BB68012B0AD10823FB619E
:102E0000FB68B0229B581E4A1A40FB68B0215A50FA
:102E10000DE0BB68002B0AD10023FB61FB68B022E8
:102E20009B581F2293431A1CFB68B0215A50FB6821
:102E3000B0229B587A68527B51B2FA6991400A1CC1
:102E40001A43FB68B0215A50FB68C8229A587B6825
:102E50005B681A43FB68C8215A50FB68D0229A5815
:102E60007B689B681A43FB68D0215A507B681968BD
:102E7000FB68BA6880329200D150BD4608B080BD70
:102E8000FFE0FFFF80B500AFBD4680BD80B582B0DA
:102E900000AF78600A1CFB1C1A70FB1C1B78012217
:102EA0009A407B68DA60BD4602B080BD80B582B0D2
:102EB00000AF78607B680122DA60BD4602B080BD59
:102EC00080B582B000AF78607B6802221A61BD468F
:102ED00002B080BD80B582B000AF78600A1CBB1C18
:102EE0001A80BB1C1A887B685A63BD4602B080BD3D
:102EF00080B582B000AF78600A1CBB1C1A80BB1C76
:102F00001A887B68DA63BD4602B080BD80B582B0A6
:102F100000AF786039607B683A681A61BD4602B0DC
:102F200080BDC04680B582B000AF78600A1CFB1C33
:102F30001A707B68A4229A58FB1C1B7801219940C7
:102F40000B1C1A437B68A4215A50BD4602B080BDB9
:102F500090B585B000AF78600F23FB1800221A707F
:102F60007B6826229B5C01225340DBB2002B0CD0F5
:102F70007B6821229B5C002B07D10F23FC187B6808
:102F8000181C00F009F8031C23700F23FB181B7892
:102F9000181CBD4605B090BD90B585B000AF7860F7
:102FA0007B681B690F22BC18181C01F07FFD031CF5
:102FB00023707B681B699A687B681B7E101C191C38
:102FC000FFF764FF7B685A697B68DB69101C191C7A
:102FD000FEF708FC7B68181C00F030F87B6825229F
:102FE0009B5C002B0FD07B6859697B6820229B5C1F
:102FF000081C00211A1CFEF711FF7B685B69181C76
:103000000021FFF78FFF7B685B69181CFFF758FFF3
:103010007B682622012199547B6824229B5C002B2B
:1030200004D07B685B69181CFFF740FF0F23FB1877
:103030001B78181CBD4605B090BDC04680B582B057
:1030400000AF78607B685A697B685B8C101C191C28
:10305000FFF740FF7B685B69181C0021FFF748FF02
:103060007B681B699A687B68DB68101C191CFFF77A
:103070004DFFBD4602B080BDB0B582B000AF021CAE
:103080003960FB1D1A70FB1D1B787F2B27D82D4C38
:10309000FB1D1B785BB29B082A49FA1D127852B2BD
:1030A0009208C03292005258F91D0978081C032179
:1030B0000140C900081CFF218140C94311403A6802
:1030C0009201FF200240F81D0078051C03202840D3
:1030D000C00082400A43C0339B001A512EE01A4CB4
:1030E000FB1D1B781A1C0F231340083B9908164A36
:1030F000FB1D1B78181C0F230340083B9B0806335D
:103100009B00D3185B68FA1D1278101C0322024042
:10311000D200101CFF228240D2431A403B689B0120
:10312000FF200340F81D0078051C03202840C00044
:1031300083401A438B1D9B00E3185A60BD4602B0C2
:10314000B0BDC04600E100E000ED00E080B582B017
:1031500000AF78607B68013B0C4A934201D90123A0
:1031600010E00B4B7A68013A5A6001235B42181C4D
:103170000321FFF781FF064B00229A60044B0722D0
:103180001A600023181CBD4602B080BDFFFFFF007F
:1031900010E000E090B587B000AF78600F23FB1817
:1031A00000221A706B497A68131CDB009B189B0085
:1031B000CB1818331B68BB60674B1B68002B09D109
:1031C0007A68131CDB009B189B00624A9A18624BBA
:1031D0001A60BCE0604B1B687B61BB683B61AAE086
:1031E0007B699B691A1C3B699B1A3B613B69002BFD
:1031F00077DC7B695B68002B25D07B695A6879682E
:103200000B1CDB005B189B0052495B1813607B6949
:10321000596850487A68131CDB009B189B00C31840
:1032200059604C497A68131CDB009B189B007A6933
:103230005A507A68131CDB009B189B00454A9A1869
:103240007B695A601BE0444B186842497A68131C3A
:10325000DB009B189B0058503F4B1A6879680B1C89
:10326000DB005B189B003B495B1853607A68131CBA
:10327000DB009B189B00374A9A18374B1A60354978
:103280007A68131CDB009B189B005B589A693B69AA
:10329000D11830487A68131CDB009B189B00C318B8
:1032A000183319602B497A68131CDB009B189B00AC
:1032B0005A58284879680B1CDB005B189B001B5888
:1032C0009869244C79680B1CDB005B189B00E318A1
:1032D00018331B68C31A93610F23FB1801221A705D
:1032E00026E03B69002B23DD7B691B68002B1FD187
:1032F00018497A68131CDB009B189B00CB187A696D
:103300005A607A68131CDB009B189B00114A9A18BC
:103310007B691A6039690F487A68131CDB009B18B7
:103320009B00C318183319600F23FB1801221A7071
:103330007B691B687B617B69002B08D00F23FB181E
:103340001B7801225340DBB2002B00D048E7BD467A
:1033500007B090BDD00900207C09002080B584B062
:1033600000AF78607A68131CDB009B189B00284A2A
:103370009B18FB60FB685B68002B07D1FB681B6830
:10338000002B03D1234B00221A603DE0FB685B68F1
:10339000002B14D1FB681A681E4B1A601D4B1B686A
:1033A00000225A601B4B1B681A4A12689169FA681E
:1033B00092698A189A61FB6800221A6024E0FB680F
:1033C0001B68002B07D1FB685B6800221A60FB6852
:1033D00000225A6018E0FB685B68FA6812681A609D
:1033E000FB681B68FA6852685A60FB681B68FA68D9
:1033F00012689169FA6892698A189A61FB680022DA
:103400001A60FB6800225A60BD4604B080BDC04609
:10341000D00900207C09002080B582B000AF2F4B7E
:103420001B687B6050E07B6820229B5C002B13D0E4
:103430007B685B69181CFFF791FF7B6800225A7359
:103440007B685B691A1C01239340DA43244B1B6899
:103450001A40234B1A6034E07B681B7B002B12D18F
:103460007B685B7B012B2CD17B685B69181CFFF7A9
:1034700075FF7B6802225A737B689A687B681B69B8
:10348000181C90471DE07B681B7B012B18D17B68C3
:103490005B7B012B15D17B685B69181CFFF75EFF16
:1034A0007B68DA697B689A617B685B69181CFFF747
:1034B00071FE7B689A687B681B69181C904700E066
:1034C00009E0064B1B687B607B68002B03D07B68A0
:1034D0009B69002BA7D0BD4602B080BD7C090020AF
:1034E0008009002080B582B000AF0E4B1B687B6066
:1034F0000D4B1B685A1C0C4B1A607B68002B0ED0BE
:103500007B689B69012B05D97B689B695A1E7B6888
:103510009A6104E07B6800229A61FFF77DFFBD4657
:1035200002B080BD7C0900208409002080B584B0F1
:1035300000AF78600F23FB1800221A707B681B789D
:1035400001225340DBB2002B20D0144B00221A6022
:10355000F0235B00181CFFF7F9FD021C0F23FB187A
:103560001A700F23FB181B78012B0FD001235B422D
:10357000181C0321FFF780FD094B00221A607B68AD
:1035800001221A700F23FB1800221A700F23FB1858
:103590001B78181CBD4604B080BDC0467C090020C5
:1035A0008009002080B582B000AF78600A1CFB1C47
:1035B0001A70FB1C1B7801229A407B68DA60BD46BA
:1035C00002B080BD80B582B000AF786039607B68A2
:1035D0005A693B685B041A437B685A61BD4602B076
:1035E00080BDC04680B582B000AF78607B680122A4
:1035F000DA60BD4602B080BD80B582B000AF7860B1
:103600007B6801221A61BD4602B080BD80B582B0E0
:1036100000AF78607B6802221A61BD4602B080BDAF
:1036200080B582B000AF786039607B683A681A6113
:10363000BD4602B080BDC04680B582B000AF7860A4
:103640000A1CFB1C1A707B68A4229A58FB1C1B786E
:10365000012199400B1C1A437B68A4215A50BD4696
:1036600002B080BD80B582B000AF78607B68B422C4
:103670009B5801221A437B68B4215A50BD4602B0C0
:1036800080BDC04680B582B000AF78600A1CFB1CCC
:103690001A707B68B4229B58062293431A1CFB1CA9
:1036A0001B785B00191C06230B401A437B68B4216E
:1036B0005A50BD4602B080BD80B582B000AF786080
:1036C00039607B68B4229A583B681A437B68B421FE
:1036D0005A50BD4602B080BD80B582B000AF786060
:1036E00039607B68B4229A583B681A437B68B421DE
:1036F0005A50BD4602B080BD90B587B000AF78602B
:103700001723FB1801221A701623FB1801221A70C6
:103710007B681B7F002B00D0CCE07B681B68982265
:103720009B581622BC18181C01F094F9031C237036
:103730001623FB181B78002B00D0B7E07B689A6833
:103740007B681B685B6D101C191CFEF71DFC7B68F9
:103750009A687B681B685B88101C191CFEF716FFB3
:103760007B689A687B681B689B88101C00211A1C68
:10377000FEF71AFF7B689A687B681B68DB88101C61
:1037800001211A1CFEF710FF7B681B685B6DDB785C
:1037900002221340DBB2002B08D17B681B685B6DF3
:1037A000DB7804221340DBB2002B08D07B685A6818
:1037B0007B681B68DB6B101C191CFEF71DFC7B680B
:1037C00099687B681B6844229B5C081C191CFFF7E6
:1037D00059FF7B689A687B681B689B6C101C191CDE
:1037E000FFF76AFF7B689A687B681B68DB6C101CBC
:1037F000191CFFF771FF7B681B6850229B5C002B34
:1038000004D07B689B68181CFFF72CFF7B685A6804
:103810007B681B69101C191CFFF702FF7B685A6844
:103820007B685B69101C191CFFF7FAFE7B689A68BD
:103830007B681B681B6C101C191CFEF729FF7B683A
:10384000181C00F061F97B68181C00F03FF87B68D9
:10385000181C00F0FFF87B681B6898229B581B68B7
:103860003B617B681B685B6D1B7B1B071B0FDBB21F
:10387000FB60FB683A69DA40131C3B617B683A697C
:103880001A627B6801221A771723FB1800221A702C
:103890007B681B681B78002B10D01723FC187B68F3
:1038A000181C00F01DFA031C237007E07B6800223F
:1038B0001A7703E01723FB1802221A701723FB184C
:1038C0001B78181CBD4607B090BDC04680B582B0BD
:1038D00000AF78607B689A687B681B685B7C101C13
:1038E00000211A1CFEF77CFE7B689A687B681B68C7
:1038F0009B7C101C02211A1CFEF772FE7B689A68E2
:103900007B681B68DB7C101C03211A1CFEF768FE19
:103910007B689A687B681B681B7D101C04211A1C3D
:10392000FEF75EFE7B689A687B681B685B7D101CF7
:1039300005211A1CFEF754FE7B689A687B681B6899
:103940009B7D101C01211A1CFEF74AFE7B689A68B9
:103950007B681B68DB7D101C08211A1CFEF740FEEB
:103960007B689A687B681B681B7E101C09211A1CE7
:10397000FEF736FE7B689A687B681B685B7E101CCE
:103980000A211A1CFEF72CFE7B681B681B7A002B91
:1039900005D07B689B68181C0021FFF74DFE7B68F3
:1039A0001B685B7A002B05D07B689B68181C022182
:1039B000FFF742FE7B681B689B7A002B05D07B6873
:1039C0009B68181C0321FFF737FE7B681B68DB7AB6
:1039D000002B05D07B689B68181C0421FFF72CFE88
:1039E0007B681B681B7B002B05D07B689B68181CC1
:1039F0000521FFF721FE7B681B685B7B002B05D050
:103A00007B689B68181C0121FFF716FE7B681B680A
:103A10009B7B002B05D07B689B68181C0821FFF757
:103A20000BFE7B681B68DB7B002B05D07B689B68EB
:103A3000181C0921FFF700FE7B681B681B7C002B0C
:103A400005D07B689B68181C0A21FFF7F5FDBD4671
:103A500002B080BD80B582B000AF78607B681B6823
:103A600058229B5C002B0ED07B681B68D96D7B684D
:103A70001B6860229A5C7B681B685B6E081C111CCB
:103A80001A1CFDF781FB7B681B6868229B5C002B7E
:103A90000ED07B681B68D96E7B681B6870229A5CAD
:103AA0007B681B685B6F081C111C1A1CFDF76CFB04
:103AB0007B681B6878229B5C002B0DD07B681B68A1
:103AC000D86F7B681B688022995C7B681B688422A6
:103AD0009B581A1CFDF758FB7B681B6888229B5C6F
:103AE000002B0ED07B681B688C2298587B681B6863
:103AF0009022995C7B681B6894229B581A1CFDF7E6
:103B000043FBBD4602B080BD90B585B002AF786082
:103B10007B689A687B681B68DB69101C01211A1C92
:103B2000FEF79EFC7B689A687B681B681B6A101C0A
:103B300002211A1CFEF794FC7B689A687B681B685C
:103B40005B6A101C03211A1CFEF78AFC7B681B6849
:103B500028229B5C002B0CD07B6898687B681B68D4
:103B60002822995C7B681B6829229B5C1A1CFEF743
:103B70005DFA7B681B682A229B5C002B0CD07B685B
:103B800098687B681B682A22995C7B681B682B22DB
:103B90009B5C1A1CFEF77EFA7B681B682C229B5CE0
:103BA000002B09D07B6899687B681B682C229B5C82
:103BB000081C191CFEF766FB7B681B682D229B5CAA
:103BC000002B09D07B6899687B681B682D229B5C61
:103BD000081C191CFEF73AFB7B681B682E229B5CB5
:103BE000002B09D07B6899687B681B682E229B5C40
:103BF000081C191CFEF70EFB7B681B682F229B5CC0
:103C0000002B13D07B6899687B681B682F229B5C14
:103C1000081C191CFEF770FA7B6899687B681B68A2
:103C200030229B5C081C191CFEF782FA7B681B681B
:103C300031229B5C002B12D07B6898687B681B68E4
:103C40003122995C7B681B6832229C5C7B681B6814
:103C500033229B5C0093221C0323FEF783FA7B68CC
:103C60001B6837229B5C032B18D17B6898687B68A4
:103C70001B683922995C7B681B6838229B5C1A1C84
:103C8000FEF734FB7B681B6836229B5C002B05D05B
:103C90007B689B68181C0F21FFF794FC7B681B68EE
:103CA00034229B5C002B05D17B681B6835229B5C12
:103CB000002B11D07B6899687B681B681A6A7B6847
:103CC0001B685B6A081C111C1A1CFEF755FB7B68FD
:103CD0009B68181CFEF7F2FABD4603B090BDC046C3
:103CE00080B584B000AF78600F23FB1801221A70F2
:103CF0007B681B7F012B03D07B681B7F032B19D1B3
:103D00007B685A687B685B7B101C191CFFF74AFCB8
:103D10007B681B6828229B5C002B04D17B689B6816
:103D2000181CFFF75FFC7B6802221A770F23FB1831
:103D300000221A700F23FB181B78181CBD4604B014
:103D400080BDC04680B584B000AF78600F23FB18FB
:103D500001221A707B681B7F002B10D07B689B6848
:103D6000181CFFF749FC7B689B68181CFFF74EFC8A
:103D70007B6803221A770F23FB1800221A700F2387
:103D8000FB181B78181CBD4604B080BD80B582B0FE
:103D900000AF78600A1CFB1C1A70FB1C1B78012208
:103DA0009A407B68DA60BD4602B080BD80B582B0C3
:103DB00000AF78607B685B69802292021A437B685F
:103DC0005A61BD4602B080BD80B582B000AF786058
:103DD0007B680122DA60BD4602B080BD80B582B04A
:103DE00000AF78607B6801221A61BD4602B080BDD9
:103DF00080B582B000AF78607B6802221A61BD4650
:103E000002B080BD80B582B000AF78600A1CBB1CD8
:103E10001A80BB1C1A887B685A63BD4602B080BDFD
:103E200080B582B000AF78600A1CBB1C1A80BB1C36
:103E30001A887B68DA63BD4602B080BD80B582B067
:103E400000AF786039607B683A681A61BD4602B09D
:103E500080BDC04680B582B000AF78600A1CFB1CF4
:103E60001A707B68A4229A58FB1C1B780121994088
:103E70000B1C1A437B68A4215A50BD4602B080BD7A
:103E800080B582B000AF78607B68B4229B58012275
:103E90001A437B68B4215A50BD4602B080BDC0466B
:103EA00080B582B000AF78600A1CFB1C1A707B687A
:103EB000B4229B58062293431A1CFB1C1B785B0000
:103EC000191C06230B401A437B68B4215A50BD4687
:103ED00002B080BD80B582B000AF786039607B6889
:103EE000B4229A583B681A437B68B4215A50BD46A5
:103EF00002B080BD80B582B000AF786039607B6869
:103F0000B4229A583B681A437B68B4215A50BD4684
:103F100002B080BD90B587B000AF78601723FB1862
:103F200001221A701623FB1801221A707B681B7F6E
:103F3000002B00D0BEE07B681B68DB6D1622BC182E
:103F4000181C00F0B3FD031C23701623FB181B780C
:103F5000002B00D0AAE07B689A687B681B689B6C8A
:103F6000101C191CFDF73EFC7B689A687B681B6877
:103F70005B88101C191CFFF745FF7B689A687B68FB
:103F80001B689B88101C191CFFF74AFF7B681B6885
:103F90009B6CDB7802221340DBB2002B08D07B68DD
:103FA0005A687B681B685B6B101C191CFDF700FCD2
:103FB0007B6899687B681B6838229B5C081C191C0D
:103FC000FFF76EFF7B689A687B681B68DB6B101CD1
:103FD000191CFFF77FFF7B689A687B681B681B6C66
:103FE000101C191CFFF786FF7B681B6844229B5C32
:103FF000002B04D07B689B68181CFFF741FF7B688F
:104000005A687B681B69101C191CFFF717FF7B6837
:104010005A687B685B69101C191CFFF70FFF7B68EF
:10402000181C00F0EDF87B68181C00F04FF87B6856
:104030001B684C229B5C002B0ED07B681B68196DA3
:104040007B681B6854229A5C7B681B689B6D081C0C
:10405000111C1A1CFDF798F87B681B68DB6D1B6848
:104060003B617B681B689B6C1B791B071B0FDBB2DA
:10407000FB60FB683A69DA40131C3B617B683A6974
:104080001A627B6801221A771723FB1800221A7024
:104090007B681B681B78002B10D01723FC187B68EB
:1040A000181C00F08BF9031C237007E07B680022CA
:1040B0001A7703E01723FB1802221A701723FB1844
:1040C0001B78181CBD4607B090BDC04680B582B0B5
:1040D00000AF78607B681B689B79002B0FD07B68F2
:1040E0009A687B681B685B7B101C00211A1CFDF71B
:1040F00095FE7B689B68181C0021FFF7ABFE7B6870
:104100001B68DB79002B0FD07B689A687B681B6883
:104110009B7B101C02211A1CFDF780FE7B689B68AC
:10412000181C0221FFF796FE7B681B681B7A002B88
:104130000FD07B689A687B681B68DB7B101C0321AF
:104140001A1CFDF76BFE7B689B68181C0321FFF7A8
:1041500081FE7B681B685B7A002B0FD07B689A68B6
:104160007B681B681B7C101C01211A1CFDF756FE86
:104170007B689B68181C0121FFF76CFE7B681B683D
:104180009B7A002B0FD07B689A687B681B685B7CEE
:10419000101C08211A1CFDF741FE7B689B68181C47
:1041A0000821FFF757FE7B681B68DB7A002B0FD0D6
:1041B0007B689A687B681B689B7C101C09211A1C11
:1041C000FDF72CFE7B689B68181C0921FFF742FE57
:1041D0007B681B681B7B002B0FD07B689A687B6811
:1041E0001B68DB7C101C0A211A1CFDF717FE7B687C
:1041F0009B68181C0A21FFF72DFEBD4602B080BD4A
:1042000090B583B000AF78607B689A687B681B6864
:104210005B69101C01211A1CFDF74AFD7B689A6836
:104220007B681B689B69101C02211A1CFDF740FD6E
:104230007B689A687B681B68DB69101C03211A1C69
:10424000FDF736FD7B681B6820229B5C002B0CD0A1
:104250007B6898687B681B682022995C7B681B6878
:1042600021229B5C1A1CFDF715FB7B681B68222230
:104270009B5C002B0CD07B6898687B681B682222B3
:10428000995C7B681B6823229B5C1A1CFDF736FB3C
:104290007B681B6824229B5C002B09D07B68996893
:1042A0007B681B6824229B5C081C191CFDF712FC10
:1042B0007B681B6825229B5C002B09D07B68996872
:1042C0007B681B6825229B5C081C191CFDF7CCFB36
:1042D0007B681B6826229B5C002B09D07B68996851
:1042E0007B681B6826229B5C081C191CFDF7A0FB41
:1042F0007B681B6827229B5C002B09D07B68996830
:104300007B681B6827229B5C081C191CFDF728FB97
:104310007B681B6828229B5C002B10D07B68986808
:104320007B681B682822995C7B681B6829229C5C3F
:104330007B681B682A229B5C221CFDF72DFB7B6897
:104340001B682E229B5C032B17D17B6898687B68C7
:104350001B683022995C7B681B682F229B5C1A1CAF
:10436000FDF7ECFB7B681B682D229B5C002B04D0C7
:104370007B689B68181CFFF719FD7B681B682B2264
:104380009B5C022B17D17B681B682C229B5C032B48
:1043900011D17B6899687B681B689A697B681B6888
:1043A000DB69081C111C1A1CFDF70EFC7B689B685E
:1043B000181CFDF7ABFBBD4603B090BD80B584B0C3
:1043C00000AF78600F23FB1801221A707B681B7FF7
:1043D000012B03D07B681B7F032B19D17B685A68A4
:1043E0007B685B7B101C191CFFF7D0FC7B681B688B
:1043F00020229B5C002B04D17B689B68181CFFF774
:10440000E3FC7B6802221A770F23FB1800221A7044
:104410000F23FB181B78181CBD4604B080BDC04696
:1044200080B584B000AF78600F23FB1801221A70AA
:104430007B681B7F002B10D07B689B68181CFFF7E4
:10444000CDFC7B689B68181CFFF7D2FC7B680322BD
:104450001A770F23FB1800221A700F23FB181B7802
:10446000181CBD4604B080BD80B582B000AF021CF0
:10447000FB1D1A70FB1D1B787F2B09D8064BFA1DFC
:104480001278111C1F220A40012191400A1C1A6057
:10449000BD4602B080BDC04600E100E0B0B582B0CC
:1044A00000AF021C3960FB1D1A70FB1D1B787F2BAF
:1044B00027D82D4CFB1D1B785BB29B082A49FA1D9F
:1044C000127852B29208C03292005258F91D0978FF
:1044D000081C03210140C900081CFF218140C94379
:1044E00011403A689201FF200240F81D0078051C37
:1044F00003202840C00082400A43C0339B001A5169
:104500002EE01A4CFB1D1B781A1C0F231340083B8E
:104510009908164AFB1D1B78181C0F230340083B03
:104520009B0806339B00D3185B68FA1D1278101C99
:1045300003220240D200101CFF228240D2431A40C4
:104540003B689B01FF200340F81D0078051C0320F9
:104550002840C00083401A438B1D9B00E3185A601B
:10456000BD4602B0B0BDC04600E100E000ED00E095
:1045700080B582B000AF78607B689B785BB2181C16
:10458000FFF772FFBD4602B080BDC04680B582B065
:1045900000AF78607B689A787B68DB78191C53B22F
:1045A000181CFFF77BFF7B689B78DAB27B689B78EF
:1045B0005BB21B0299B27B681B889BB20B439BB218
:1045C0009BB2101C191CFDF755F87B681B79002B5A
:1045D00003D07B68181CFFF7CBFF0023181CBD46D7
:1045E00002B080BD80B582B000AF78600A1CFB1CB1
:1045F0001A70FB1C1B7801229A407B68DA60BD466A
:1046000002B080BD80B582B000AF78600A1CBB1CD0
:104610001A80BB1C1A887B685A63BD4602B080BDF5
:1046200080B582B000AF78600A1CBB1C1A80BB1C2E
:104630001A887B68DA63BD4602B080BD80B582B05F
:1046400000AF786039607B683A681A61BD4602B095
:1046500080BDC04680B582B000AF78600A1CBB1C2C
:104660001A80BB1C1A887B681A67BD4602B080BDE1
:1046700080B584B000AF78600F23FB1800221A7059
:104680007B6884229B5C002B00D095E17B681B6ECD
:10469000181C00F0B1F9031E012B03D10F23FB18E6
:1046A00001221A707B689B6E181C00F0FFF9031E34
:1046B000012B03D10F23FB1801221A707B689B6A20
:1046C00019687B689B6A1A797B68DB6D081C111C72
:1046D0001A1CFCF759FD7B68DB6A19687B68DB6A8A
:1046E0001A797B68DB6D081C111C1A1CFCF74CFD49
:1046F0007B681B6C5B7B002B0CD17B681B6B196888
:104700007B681B6B1A797B68DB6D081C111C1A1CFB
:10471000FCF73AFD7B681B6D1A687B689B6B101C6D
:10472000191CFDF793F87B681B6D1A687B685B6B3F
:104730001B791B071B0FDBB2101C191CFDF74EFB6E
:104740007B68DB6C1A687B685B6B101C191CFDF7BF
:1047500049F87B68DA6B7B689B6C101C191CFDF7B1
:10476000F9FF7B68DA6B7B685B6C101C191CFEF729
:1047700005F8031E012B03D10F23FB1801221A7029
:104780007B68DB6C1A687B681B6CDB8A101C191C4D
:10479000FFF746FF7B68DB6C1A687B681B6C1B8B22
:1047A000101C191CFFF72EFF7B681B6D19687B68B6
:1047B0001B6C1A8B7B685B6E9BB2D3189BB2081C78
:1047C000191CFFF72DFF7B681B6D1B687E4A181CA8
:1047D000111CFFF717FF7B681B6D19687B681B6C4A
:1047E0001A8B7B685B6E9BB2D3189BB201339BB272
:1047F000081C191CFFF72EFF7B68DB6C5A687B686E
:10480000DB6C9B68101C191CFFF718FF7B681B6D85
:104810005A687B681B6D9B68101C191CFFF70EFF04
:104820007B68DB6C1A687B685B6D101C01211A1CAD
:10483000FDF73EFA7B68DB6C1B68181C0121012226
:10484000FDF728F87B681B6D1A687B689B6D101C50
:1048500001211A1CFDF72CFA7B681B6D1B68181CC4
:104860000121FDF71DF97B68DB6C5A687B68DB6C06
:104870001B7B101C191CFFF7B5FE7B681B6D5A686B
:104880007B681B6D1B7B101C191CFFF7ABFE7B6844
:10489000DB6C1A687B681B6C1B78101C00211A1CCF
:1048A000FDF7BCFA7B68DB6C1A687B681B6C5B7875
:1048B000101C02211A1CFDF7B1FA7B68DB6C1A6828
:1048C0007B681B6C9B78101C08211A1CFDF7A6FA4C
:1048D0007B68DB6C1A687B681B6CDB78101C092119
:1048E0001A1CFDF79BFA7B68DB6C1A687B681B6CF3
:1048F0001B79101C0A211A1CFDF790FA7B681B6DAE
:104900001A687B681B6C5B79101C00211A1CFDF770
:1049100085FA7B681B6D1A687B681B6C9B79101C81
:1049200002211A1CFDF77AFA7B681B6D1A687B68F6
:104930001B6CDB79101C08211A1CFDF76FFA7B68D1
:104940001B6D1A687B681B6C1B7A101C09211A1CD2
:10495000FDF764FA7B681B6D1A687B681B6C5B7AD9
:10496000101C0A211A1CFDF759FA7B68DA6B7B6868
:104970001B6C9B7A101C00211A1CFDF723FF7B681F
:10498000DA6B7B681B6CDB7A101C01211A1CFDF7AB
:1049900019FF7B68DA6B7B681B6C1B7B101C022188
:1049A0001A1CFDF70FFF0F23FB181B78012B03D0F8
:1049B0007B688422012199540F23FB181B78181C53
:1049C000BD4604B080BDC046FFFF000080B582B088
:1049D00000AF78600A1CFB1C1A707B681B680322FE
:1049E00093431A1CFB1C1B7803210B401A437B6862
:1049F0001A60BD4602B080BD80B584B000AF78605B
:104A00000F23FB1800221A707B681B79002B0DD135
:104A10007B681B68181CFDF781FE7B681B68181CEF
:104A20000221FFF7D3FF7B6801221A710F23FB18C5
:104A30001B78181CBD4604B080BDC04680B582B04E
:104A400000AF78607B6880225200DA60BD4602B019
:104A500080BDC04680B582B000AF78607B685B7B6C
:104A600001225340DBB2002B0FD07B689A687B6831
:104A70001B7B101C191CFDF763FA7B689B68181CD4
:104A8000FFF7DCFF7B6801225A730023181CBD4628
:104A900002B080BD80B582B000AF78607B688022B4
:104AA0005200DA60BD4602B080BDC04680B582B01B
:104AB00000AF78607B685B7B01225340DBB2002B48
:104AC0000FD07B689A687B681B7B101C191CFCF755
:104AD0004BFE7B689B68181CFFF7DCFF7B6801229C
:104AE0005A730023181CBD4602B080BD80B582B049
:104AF00000AF786039607B6880229A583B68103339
:104B0000191C01238B401A437B6880215A50BD46F3
:104B100002B080BD80B582B000AF78600A1CBB1CBB
:104B20001A807B681B6C064A1A40BB1C1B88134307
:104B3000802212021A437B681A64BD4602B080BD0F
:104B4000FFF3FFFF80B582B000AF78600A1CFB1C4A
:104B50001A707B681B6C0A4A1340802212021A43A7
:104B60007B681A647B681A6CFB1C1B7813438022D9
:104B700012021A437B681A64BD4602B080BDC0466B
:104B8000F07FFFFF80B584B000AF78607B681B7E4C
:104B9000022B5ED17B68DA687B689B68101C191C4D
:104BA000FDF7AEFE0023FB6038E07B68FA689200F8
:104BB000D35819687B68FA689200D3585B68081C60
:104BC000191CFDF761FF7B68FA689200D3581B68D7
:104BD000181C0321FEF700F87B68FA689200D3588E
:104BE0001B7A01225340DBB2002B06D07B68DA68C7
:104BF000FB68101C191CFFF779FF7B681A69FB68BA
:104C0000DBB2101C191CFEF703F87B68FA689200EF
:104C1000D35800225A72FB680133FB60FB68012BFA
:104C2000C3D97B681B69181C0021FFF78BFF7B68C9
:104C30001B69181C0021FFF76DFF7B685B7E002B52
:104C400004D07B68DB68181CFDF7AEFE7B68002291
:104C50001A767B681B7E181CBD4604B080BDC0461A
:104C600080B500AF034B034A926E01218A439A66D6
:104C7000BD4680BD0000014080B584B000AF7860C3
:104C80000F23FB1800221A700E23FB1800221A7043
:104C90000D23FB1800221A700C23FB1800221A7037
:104CA0000B23FB1800221A707B681B7801225340EB
:104CB000DBB2002B1BD00E23FA180D23FB18127841
:104CC0001B781343DAB20C23FB181B781343D9B2B9
:104CD0000F23FB180B22BA1812780A431A700F23FD
:104CE000FB181B78002B02D17B6801221A700F235E
:104CF000FB181B78181CBD4604B080BD90B585B06C
:104D000000AF3B1C054A13CA13C312681A603B1C50
:104D1000181CFCF711FBBD4605B090BDC05D00102E
:104D200080B582B000AF021CFB1D1A70FB1D1B7802
:104D30007F2B09D8064BFA1D1278111C1F220A403E
:104D4000012191400A1C1A60BD4602B080BDC046D8
:104D500000E100E0B0B582B000AF021C3960FB1D7D
:104D60001A70FB1D1B787F2B27D82D4CFB1D1B7841
:104D70005BB29B082A49FA1D127852B29208C032DF
:104D800092005258F91D0978081C03210140C900FE
:104D9000081CFF218140C94311403A689201FF205D
:104DA0000240F81D0078051C03202840C000824006
:104DB0000A43C0339B001A512EE01A4CFB1D1B788E
:104DC0001A1C0F231340083B9908164AFB1D1B7839
:104DD000181C0F230340083B9B0806339B00D31885
:104DE0005B68FA1D1278101C03220240D200101CCE
:104DF000FF228240D2431A403B689B01FF200340C0
:104E0000F81D0078051C03202840C00083401A4389
:104E10008B1D9B00E3185A60BD4602B0B0BDC04672
:104E200000E100E000ED00E080B582B000AF786006
:104E30007A6881239B00D358802292001A43111C68
:104E40007A6881239B00D150BD4602B080BDC04628
:104E500080B584B000AFF860B9607A60FB68BA686A
:104E600060329200D2587B68012199400B1C1A4392
:104E7000111CFB68BA6860329200D150BD4604B084
:104E800080BDC04680B584B000AFF860B9607A607C
:104E90007B681968FB68BA68A0329200D150BD46A1
:104EA00004B080BD90B585B000AF78607B681B7E94
:104EB000022B00D09BE07B68DB680E22BC18181C1C
:104EC000FFF760FE031C23707B68DB68DA687B6891
:104ED0009B681B68101C191C00220023FDF73EFD77
:104EE0007B68DB68DA687B685B68101C191CFDF75F
:104EF000B3FE0F23FB1800221A7034E07B681B6896
:104F00000F22BA1812789200D358BB60BB689A6817
:104F1000BB685B7B191CBB681B68101C1A1CFDF767
:104F200043FFBB689A68BB681B689B781B071B0F15
:104F3000DBB2191CBB685B68101C1A1CFFF7A2FFD0
:104F40007B68DB68DA68BB681B7B191CBB685B7B12
:104F5000101C1A1CFFF77CFF0F23FB181A780F2375
:104F6000FB1801321A700F23FB181B78082BC5D9C8
:104F70007B685B681B7A08221340DBB2002B20D0D1
:104F80007B681B69002B1CD07B681B691B68DAB22D
:104F90007B681B695B6852B2101C191CFFF7DAFEB4
:104FA0007B68DB68DA687B685B7E101C191CFDF788
:104FB0003FFD7B681B691B68DBB25BB2181CFFF707
:104FC000AFFE7B685B69002B02D07B685B6998470A
:104FD0007B689B7E002B05D07B68DB68DB68181C38
:104FE000FFF722FF7B680E22BA1812781A767B68C8
:104FF0001B7E181CBD4605B090BDC04690B583B061
:1050000000AFFB1D00221A70FC1D424B181CFFF75D
:1050100033FE031C2370FB1D1B78002B06D1FC1DE7
:105020003D4B181CFEF782FA031C2370FB1D1B78F6
:10503000002B06D1FC1D394B181CFFF733FF031C56
:105040002370FB1D1B78002B06D1FC1D344B181C54
:10505000FFF70EFB031C2370FB1D1B78002B06D1F2
:10506000FC1D304B181CFEF747FB031C2370FB1D77
:105070001B78002B06D1FC1D2B4B181CFEF74AFF9A
:10508000031C2370FB1D1B78002B06D1FC1D274B36
:10509000181CFEF73FFF031C2370FB1D1B78002B21
:1050A00006D1FC1D224B181CFEF726FB031C2370A7
:1050B000FB1D1B78002B06D1FC1D1E4B181CFEF798
:1050C0001BFB031C2370FB1D1B78002B06D1FC1D52
:1050D000194B181CFEF710FB031C2370FB1D1B78DB
:1050E000002B06D1FC1D154B181CFDF731FF031CCE
:1050F0002370FB1D1B78002B06D1FC1D104B181CC8
:10510000FFF744FA031C2370FB1D1B78181CBD46D7
:1051100003B090BD900900208809002050090020AC
:1051200014070020780500204806002070060020A3
:10513000AC050020E00500201406002050050020EA
:10514000785D001090B583B000AFFC1DFFF756FFEF
:10515000031C2370FB1D1B78002B00D0FEE7FEE72D
:1051600080B500AFE14B1B685A1CE04B1A60E04B66
:105170001B685A1CDE4B1A60DE4B1B685A1CDD4B49
:105180001A60DD4B1B685A1CDB4B1A60D74B1B683F
:10519000002B17D1D94B181CFFF742F9D84B181C1C
:1051A000FFF73EF9D74B181CFEF7CCFDD64B181C69
:1051B000FEF7C8FDD54B181CFEF792FDD44B181C0A
:1051C000FEF78EFDC94B1B68D24A934217D1CC4BD8
:1051D000181CFFF725F9CD4B181CFEF7B3FDC94B82
:1051E000181CFEF7AFFDC84B181CFEF7ABFDC34BF8
:1051F000181CFFF715F9C64B181CFEF7A3FDC64B8C
:105200001B68181CFC21890500F07AFA031E29D0BE
:10521000C14B1B68181CC14900F05EFA031E21D067
:10522000BF4B04221A60B54B181CFFF7F9F8B44BBA
:10523000181CFFF7F5F8B54B181CFEF783FDB44BAF
:10524000181CFEF77FFDAF4B181CFEF749FDAE4B57
:10525000181CFEF745FDA74B1A68B24B1A60B24BFB
:1052600001221A60AC4B1B68181CAC4900F048FACC
:10527000031E29D0A84B1B68181CAC4900F02CFA5F
:10528000031E21D0A64B01221A609C4B181CFFF76D
:10529000C7F89B4B181CFFF7C3F89A4B181CFEF776
:1052A00051FD994B181CFEF74DFD984B181CFEF74D
:1052B00017FD974B181CFEF713FD8E4B1A689C4B7D
:1052C0001A609C4B01221A609B4B1B68181CFC2126
:1052D000890500F015FA031E22D0974B1B68181C95
:1052E0008E4900F0F9F9031E1AD08D4B06221A6080
:1052F000834B181CFFF794F8844B181CFEF722FD13
:10530000804B181CFEF71EFD7F4B181CFEF71AFD84
:105310007A4B181CFFF752F87D4B181CFEF7E0FC87
:10532000854B1B68181C7D4900F0EAF9031E22D04A
:10533000814B1B68181C7D4900F0CEF9031E1AD062
:10534000774B03221A606D4B181CFFF769F86F4BFF
:10535000181CFEF7F7FC6B4B181CFEF7F3FC6C4BAC
:10536000181CFEF7EFFC664B181CFFF727F8664B7E
:10537000181CFEF7B5FC714B1B68181CFC21890535
:1053800000F0BEF9031E22D06C4B1B68181C634949
:1053900000F0A2F9031E1AD0614B02221A60574B8B
:1053A000181CFFF73DF8574B181CFEF7CBFC564B6B
:1053B000181CFEF7C7FC564B181CFEF7C3FC504BDD
:1053C000181CFEF7FBFF514B181CFEF789FC5B4BCA
:1053D0001B68181C514900F093F9031E22D0574B4B
:1053E0001B68181C514900F077F9031E1AD04C4B6A
:1053F00005221A60414B181CFFF712F8414B181C8C
:10540000FEF7A0FC404B181CFEF79CFC404B181C00
:10541000FEF798FC3A4B181CFEF7D0FF3B4B181CCC
:10542000FEF75EFC3C4B1B68181CFC21890500F054
:1054300067F9031E22D0384B1B68181C374900F04F
:105440004BF9031E1AD0364B04221A602B4B181C42
:10545000FEF7E6FF2A4B181CFEF7E2FF2B4B181C49
:10546000FEF770FC2A4B181CFEF76CFC254B181C31
:10547000FEF736FC244B181CFEF732FC264B1B684B
:10548000181C264900F03CF9031E22D0224B1B6851
:10549000181C264900F020F9031E1AD0204B0122C7
:1054A0001A60164B181CFEF7BBFF154B181CFEF7B5
:1054B000B7FF144B181CFEF745FC134B181CFEF7E6
:1054C00041FC124B181CFEF70BFC114B181CFEF78D
:1054D00007FC194B1B68181CFC21890500F010F90A
:1054E000031E4DD0144B1B68181C29E0C009002076
:1054F000C4090020C8090020CC090020480600206B
:1055000070060020AC050020E00500207805002092
:105510001406002050C300005C0B00200000404136
:10552000540B0020600B0020B80900200000BC4193
:10553000B40B0020BC090020AC0B0020C00B0020E5
:10554000514900F0C9F8031E1AD0504B06221A60C8
:105550004F4B181CFEF764FF4E4B181CFEF7F2FB76
:105560004D4B181CFEF7EEFB4C4B181CFEF7EAFBEC
:105570004B4B181CFEF722FF4A4B181CFEF7B0FBE2
:10558000494B1B68181C404900F0BAF8031E22D092
:10559000454B1B68181C454900F09EF8031E1AD0A5
:1055A0003A4B03221A603E4B181CFEF739FF394B69
:1055B000181CFEF7C7FB384B181CFEF7C3FB394B12
:1055C000181CFEF7BFFB324B181CFEF7F7FE334BDF
:1055D000181CFEF785FB364B1B68181CFC2189053F
:1055E00000F08EF8031E22D0314B1B68181C264990
:1055F00000F072F8031E1AD0244B02221A60284BC6
:10560000181CFEF70DFF244B181CFEF79BFB234BC9
:10561000181CFEF797FB234B181CFEF793FB1C4B43
:10562000181CFEF7CBFE1B4B181CFEF759FB204B3A
:105630001B68181C144900F063F8031E22D01C4B91
:105640001B68181C194900F047F8031E1AD00F4BAD
:1056500005221A60124B181CFEF7E2FE0E4B181CB6
:10566000FEF770FB0D4B181CFEF76CFB0D4B181C66
:10567000FEF768FB064B181CFEF7A0FE054B181C36
:10568000FEF72EFBBD4680BD00004041540B0020BC
:105690007006002078050020AC050020E005002001
:1056A0004806002014060020AC0B00200000BC417E
:1056B000C00B00208446081C6146FFE71FB500F0C0
:1056C000A7F8002801D40021C8421FBD10B500F082
:1056D0002BF84042013010BD10B500F099F80028B9
:1056E00001DB002010BD012010BDC04610B500F048
:1056F0008FF8002801DD002010BD012010BDC0463C
:1057000010B500F03BF8002801DC002010BD01209E
:1057100010BDC04610B500F031F8002801DA0020B5
:1057200010BD012010BDC046430270B542004C00C0
:105730005D0AC30F4802120E460A240EC90FFF2A43
:1057400005D0FF2C08D00120A2420BD070BD012053
:10575000002DFBD1FF2CF6D10120002EF6D1012027
:10576000A242F3D1B542F1D18B4205D0002AEDD14E
:10577000281C431E9841E9E70020E7E7F0B5430203
:105780004D024A0044005E0A240EC30F6D0A120E39
:10579000C90FFF2C0DD0FF2A31D0002C0DD177423C
:1057A0007741002A23D1002D21D10020002F0BD1D9
:1057B00007E0002E28D1FF2A21D0002A05D08B42F5
:1057C00007D0584201231843F0BD002DF9D08B4279
:1057D000F7D19442F5DC04DBAE42F2D80020AE42B1
:1057E000F2D25842434101205B421843ECE7002FBC
:1057F000E5D048424141012049420843E4E7002DF9
:1058000002D1002CCBD0DAE702204042DCE7C046D0
:105810004302F0B542004C005E0AC30F4802120E6C
:10582000450A240EC90FFF2A0FD0FF2C1AD0002AD8
:1058300010D177427741002C29D0002F17D0484251
:1058400041410120494208430BE00220002E08D1CB
:10585000FF2C07D0002C0AD1002D08D1584201237B
:105860001843F0BD0220002DFBD1002AE1D08B426D
:10587000F4D1A242F2DC04DBAE42EFD80020AE420B
:10588000EFD25842434101205B421843E9E7002D23
:10589000D3D10020002FE4D1E0E7C0460E4B70B515
:1058A00000251E1C0D4CE41AA410A54204D0AB0028
:1058B000F35898470135F8E7FDF7E4FA084B00255F
:1058C0001E1C084CE41AA410A54204D0AB00F358E7
:1058D00098470135F8E770BD6C0900206C0900207D
:1058E0006C0900206C090020461E0010461E0010A6
:1058F000501E0010501E00107E1E00107E1E001054
:105900007E1E00107E1E00105A1E0010661E001023
:10591000721E0010721E00100A2600100A260010C7
:1059200014260010142600101E2600101E2600103B
:105930004C2600104C26001028260010342600109B
:1059400040260010402600100004034800080348C9
:105950000000000000000000000000000000000047
:105960000000010000000100000001000000000034
:105970000000000000000000940000000000010092
:105980000000BF12C0125D0900000000000000000E
:10599000000000000000000000000000605900103E
:1059A0006459001068590010000000000000000059
:1059B00000000000000000000100000000000008DE
:1059C0006C59001001000000000000000000000001
:1059D00000000000505900100100000000000440C9
:1059E00007000000785900100000000000000000CF
:1059F00000000000000000000000000000000000A7
:105A00000000000000000000000000000000000096
:105A10000000000000000000A807002000000000B7
:105A20000000000000000000000000000000010075
:105A30000000010000000100000000000000000064
:105A40000000000094000000000001000000BF12F0
:105A500000005D09000000000000000000000000E0
:105A600000000000000000002C5A0010305A001006
:105A7000345A001000000000000000000000000088
:105A8000000000000100000000000010385A001063
:105A90000100000000000000000000000000000005
:105AA0001C5A001001000000000004400800000023
:105AB000445A001000000000000000000000000038
:105AC00000000000000000000000000000000000D6
:105AD00000000000000000000000000000000000C6
:105AE00000000000A80700200000000000000000E7
:105AF0000000000000000000130001000000010091
:105B00000000010000000000000000000000000094
:105B100094000000000001000000BF12C0125D09E7
:105B20000000000000000000000000000000000075
:105B300000000000F85A0010FC5A0010005B001032
:105B40000000000000000000000000000000000055
:105B50000100000000000004045B001001000000D0
:105B6000000000000000000000000000E85A0010E3
:105B7000010000000000044000000000105B001065
:105B80000000000000000000000000000000000015
:105B90000000000000000000000000000000000005
:105BA00000000000000000000000000000000000F5
:105BB000A807002000000000000000000000000016
:105BC00000000000000001000000010000000100D2
:105BD0000000000000000000000000009400000031
:105BE000000001000000BF1200005D09000000007D
:105BF00000000000000000000000000000000000A5
:105C0000C45B0010C85B0010CC5B001000000000FB
:105C10000000000000000000000000000100000083
:105C200000000020D05B0010010000000000000018
:105C30000000000000000000B45B00100100000044
:105C4000000204400A000000DC5B001000000000BD
:105C50000000000000000000000000000000000044
:105C60000000000000000000000000000000000034
:105C7000000000000000000000000000A807002055
:105C80000000000000000000000001000000010012
:105C90000000010090000000000001000000BF12A1
:105CA000C012000000000000000000000000000022
:105CB000885C00108C5C0010905C001000000000FC
:105CC00000000000000000000000000100000000D3
:105CD00000000008010000000000000000000000BB
:105CE00000000000805C0010010000000000044083
:105CF00001000000945C0010B807002000000000C4
:105D00000000000000000100000001000000010090
:105D100090000000000001000000BF120000000021
:105D2000000000000000000000000000045D001002
:105D3000085D00100C5D0010000000000000000075
:105D40000000000000000001000000000000001042
:105D50000100000000000000000000000000000042
:105D6000FC5C001001000000000004400200000084
:105D7000105D0010B80700200100150301000000AD
:105D80000000000000000000000000000000000013
:105D90000000000000000000000000000000000003
:105DA00000000000000000000000000001000000F2
:105DB00000000000000000000000000000000000E3
:105DC000000001000000300300000100000000009E
:105DD00001000000050000000000000010000000AD
:105DE0002C480047000000000000000000000000F8
:105DF00000000000000000000000000000000000A3
:105E0000254800470000000000000000234800472C
:105E100023480047234800472348004723480047BA
:105E200023480047234800472348004723480047AA
:105E3000234800472348004723480047234800479A
:105E4000234800472348004723480047234800478A
:105E5000234800472348004723480047234800477A
:105E6000234800472348004723480047234800476A
:105E7000234800472348004723480047234800475A
:105E8000234800472348004723480047234800474A
:105E9000234800479D1000109D1000109D10001019
:105EA000E53400109D1000109D1000109D10001092
:105EB0009D1000109D1000109D1000109D100010EE
:105EC0009D1000109D1000109D1000109D100010DE
:105ED0009D1000109D1000109D1000109D100010CE
:105EE0009D1000109D1000109D1000109D100010BE
:105EF0009D1000109D100010615100109D100010A9
:105F00009D1000109D1000109D1000109D1000109D
:105F10009D1000109D1000109D1000109D1000108D
:045F20009D100010C0
:105F24001027000000D054850A0000005000000033
:105F3400C807002000420448010000007409002042
:105F440000007F250101000080590010000000506E
:105F540000020050000100001000000020000000BA
:105F640040000000000000000000000000000000ED
:105F74008E13000000000000000000004C5A0010C6
:105F84000000005000030050000200000001000067
:105F940000020000000400000000000000000000F7
:105FA400102700008E130000000000000000000015
:105FB400185B0010000000500001005000000000B9
:105FC40001000000020000000400000000000000C6
:105FD40000000000000000008E130000000000001C
:105FE40000000000E45B00100000005000040050BA
:105FF400000300000010000000200000004000002A
:106004000000000000000000102700008E130000B4
:1060140000000000000000009C5C00100000044828
:1060240000020448000100001000000020000000ED
:10603400400000000000000000000000000000001C
:10604400185D00100000044800030448000200002A
:106054000001000000020000000400000000000035
:1060640000000000102700000000000000000100F4
:106074000001044000000000000104400100000091
:1060840000010440020000000600000006000000B9
:10609400040100001D0100002000000000000000B9
:1060A4000001044800000448010000000000000052
:1060B400000404480000044800100000030000002D
:1060C40010000000000000000000000000000000BC
:1060D400000000007D4A5D05220208000D0000005A
:1060E40000000000000000000000000000000000AC
:1060F400000000000000000000000000001932133E
:106104002C0D260000291A0B34251600B006002099
:10611400A8060020A0060020B8060020C80600201B
:1061240000000150F4060020F00600208C09002035
:10613400D0060020E0060020C0060020C40600208F
:1061440098060020A007002053000000B807002094
:10615400000000000000000000000000000000003B
:1061640000000000FF7F0000000022020000000089
:10617400000001500000000000D8B8050001000034
:10618400000000500000000000D8B8050100000025
:10619400000004480000000000D8B8050200000018
:1061A400004004480000000000040348805D001023
:1061B4000102000000080348945D00100102000081
:1061C400D8070020E4070020A85D00100000034861
:1061D400004003480000000002010000020021000A
:1061E400000000000000000000FF00000C08002078
:1061F40094090020000403480000000002002C0061
:106204000000000000000000000100002C08002035
:10621400980900200008034801000000020025003E
:106224000000000000000000000000004C080020F6
:106234009C0900200008034801010000020024001A
:10624400000000000000000000FF00006C080020B7
:10625400A0090020000803480105000002002B00EB
:10626400000000000000000000FF00008C08002077
:10627400A4090020000803480106000002002A00C7
:10628400000000000000000000FF0000AC08002037
:10629400A8090020000803480107000002002200AA
:1062A400000000000000000000050000CC080020F1
:1062B400AC0900200004034800010000020027008C
:1062C400000000000000000000FF0000EC080020B7
:1062D400B009002000040348000600000200290061
:1062E400000000000000000000FF00000C09002076
:1062F400B409002000040348000700001C08002023
:106304003C0800205C0800207C0800209C08002039
:10631400BC080020DC080020FC0800201C09002028
:106324002C090020D45D0010D05D0010F00700207F
:0C63340000000000000000000204010056
:040000051000101DBA
:00000001FF
